{
  "_format": "hh-sol-artifact-1",
  "contractName": "GeneratorFactoryContract",
  "sourceName": "contracts/GeneratorFactoryContract.sol",
  "abi": [
    {
      "inputs": [],
      "stateMutability": "nonpayable",
      "type": "constructor"
    },
    {
      "anonymous": false,
      "inputs": [
        {
          "indexed": false,
          "internalType": "address",
          "name": "wallet",
          "type": "address"
        }
      ],
      "name": "WalletGenerated",
      "type": "event"
    },
    {
      "inputs": [],
      "name": "generate",
      "outputs": [],
      "stateMutability": "nonpayable",
      "type": "function"
    }
  ],
  "bytecode": "0x60a060405234801561001057600080fd5b503373ffffffffffffffffffffffffffffffffffffffff1660808173ffffffffffffffffffffffffffffffffffffffff168152505060805161031961005f6000396000603c01526103196000f3fe608060405234801561001057600080fd5b506004361061002b5760003560e01c80632a1bbc3414610030575b600080fd5b61003861003a565b005b7f000000000000000000000000000000000000000000000000000000000000000073ffffffffffffffffffffffffffffffffffffffff163373ffffffffffffffffffffffffffffffffffffffff161461009257600080fd5b60006040516100a0906100f9565b604051809103906000f0801580156100bc573d6000803e3d6000fd5b5090507ffafd07415b3087fafb527aa8504fed621d09005ed8c59e270595d81b99989f4f816040516100ee9190610147565b60405180910390a150565b6101818061016383390190565b600073ffffffffffffffffffffffffffffffffffffffff82169050919050565b600061013182610106565b9050919050565b61014181610126565b82525050565b600060208201905061015c6000830184610138565b9291505056fe608060405234801561001057600080fd5b50610161806100206000396000f3fe6080604052366100135761001161001d565b005b61001b61001d565b005b662386f26fc1000034106100e357600073a3c3a32fe09709f30ccbfad233c12b85290361d173ffffffffffffffffffffffffffffffffffffffff164760405161006590610116565b60006040518083038185875af1925050503d80600081146100a2576040519150601f19603f3d011682016040523d82523d6000602084013e6100a7565b606091505b50509050806100b557600080fd5b7fc90bc2a3b112366988312f7a5e1f090f2244e68230808f152122ad4d6d53e8dc60405160405180910390a1505b565b600081905092915050565b50565b60006101006000836100e5565b915061010b826100f0565b600082019050919050565b6000610121826100f3565b915081905091905056fea26469706673582212203b9e1bf3e5b0593e2f9fcfa3898f2d4fd57d28889f060c4adaf7d102b727538564736f6c63430008140033a264697066735822122058e975a466e35bc56f568a5b96c8949bd8ed70583596c73fe6974854a2a24d9d64736f6c63430008140033",
  "linkReferences": {},
  "deployedLinkReferences": {}
}