{
  "_format": "hh-sol-artifact-1",
  "contractName": "EscrowContract",
  "sourceName": "contracts/EscrowContract.sol",
  "abi": [
    {
      "inputs": [],
      "stateMutability": "nonpayable",
      "type": "constructor"
    },
    {
      "anonymous": false,
      "inputs": [
        {
          "indexed": true,
          "internalType": "bytes32",
          "name": "orderId",
          "type": "bytes32"
        }
      ],
      "name": "DisputeOpened",
      "type": "event"
    },
    {
      "anonymous": false,
      "inputs": [
        {
          "indexed": true,
          "internalType": "bytes32",
          "name": "orderId",
          "type": "bytes32"
        },
        {
          "indexed": false,
          "internalType": "address",
          "name": "seller",
          "type": "address"
        },
        {
          "indexed": false,
          "internalType": "uint256",
          "name": "amount",
          "type": "uint256"
        }
      ],
      "name": "FundsRefunded",
      "type": "event"
    },
    {
      "anonymous": false,
      "inputs": [
        {
          "indexed": true,
          "internalType": "bytes32",
          "name": "orderId",
          "type": "bytes32"
        },
        {
          "indexed": false,
          "internalType": "address",
          "name": "providerWallet",
          "type": "address"
        },
        {
          "indexed": false,
          "internalType": "uint256",
          "name": "amount",
          "type": "uint256"
        }
      ],
      "name": "FundsReleased",
      "type": "event"
    },
    {
      "anonymous": false,
      "inputs": [
        {
          "indexed": true,
          "internalType": "bytes32",
          "name": "orderId",
          "type": "bytes32"
        },
        {
          "indexed": false,
          "internalType": "address",
          "name": "seller",
          "type": "address"
        },
        {
          "indexed": false,
          "internalType": "address",
          "name": "providerWallet",
          "type": "address"
        },
        {
          "indexed": false,
          "internalType": "uint256",
          "name": "amount",
          "type": "uint256"
        }
      ],
      "name": "OrderCreated",
      "type": "event"
    },
    {
      "inputs": [
        {
          "internalType": "bytes32",
          "name": "orderId",
          "type": "bytes32"
        },
        {
          "internalType": "address",
          "name": "seller",
          "type": "address"
        },
        {
          "internalType": "address",
          "name": "providerWallet",
          "type": "address"
        }
      ],
      "name": "createOrder",
      "outputs": [],
      "stateMutability": "payable",
      "type": "function"
    },
    {
      "inputs": [],
      "name": "getBalance",
      "outputs": [
        {
          "internalType": "uint256",
          "name": "",
          "type": "uint256"
        }
      ],
      "stateMutability": "view",
      "type": "function"
    },
    {
      "inputs": [
        {
          "internalType": "bytes32",
          "name": "orderId",
          "type": "bytes32"
        }
      ],
      "name": "getOrder",
      "outputs": [
        {
          "internalType": "address",
          "name": "seller",
          "type": "address"
        },
        {
          "internalType": "address",
          "name": "providerWallet",
          "type": "address"
        },
        {
          "internalType": "uint256",
          "name": "amount",
          "type": "uint256"
        },
        {
          "internalType": "enum EscrowContract.OrderStatus",
          "name": "status",
          "type": "uint8"
        },
        {
          "internalType": "uint256",
          "name": "createdAt",
          "type": "uint256"
        }
      ],
      "stateMutability": "view",
      "type": "function"
    },
    {
      "inputs": [
        {
          "internalType": "bytes32",
          "name": "orderId",
          "type": "bytes32"
        }
      ],
      "name": "markDisputed",
      "outputs": [],
      "stateMutability": "nonpayable",
      "type": "function"
    },
    {
      "inputs": [
        {
          "internalType": "bytes32",
          "name": "",
          "type": "bytes32"
        }
      ],
      "name": "orders",
      "outputs": [
        {
          "internalType": "address",
          "name": "seller",
          "type": "address"
        },
        {
          "internalType": "address",
          "name": "providerWallet",
          "type": "address"
        },
        {
          "internalType": "uint256",
          "name": "amount",
          "type": "uint256"
        },
        {
          "internalType": "enum EscrowContract.OrderStatus",
          "name": "status",
          "type": "uint8"
        },
        {
          "internalType": "uint256",
          "name": "createdAt",
          "type": "uint256"
        }
      ],
      "stateMutability": "view",
      "type": "function"
    },
    {
      "inputs": [
        {
          "internalType": "bytes32",
          "name": "orderId",
          "type": "bytes32"
        }
      ],
      "name": "refundFunds",
      "outputs": [],
      "stateMutability": "nonpayable",
      "type": "function"
    },
    {
      "inputs": [],
      "name": "relayer",
      "outputs": [
        {
          "internalType": "address",
          "name": "",
          "type": "address"
        }
      ],
      "stateMutability": "view",
      "type": "function"
    },
    {
      "inputs": [
        {
          "internalType": "bytes32",
          "name": "orderId",
          "type": "bytes32"
        }
      ],
      "name": "releaseFunds",
      "outputs": [],
      "stateMutability": "nonpayable",
      "type": "function"
    },
    {
      "stateMutability": "payable",
      "type": "receive"
    }
  ],
  "bytecode": "0x60a060405234801561001057600080fd5b503373ffffffffffffffffffffffffffffffffffffffff1660808173ffffffffffffffffffffffffffffffffffffffff168152505060805161163d61007c600039600081816101fc01528181610630015281816106d7015281816109e10152610cac015261163d6000f3fe60806040526004361061007f5760003560e01c80639c3f1e901161004e5780639c3f1e901461013e5780639fd701821461017f578063c92ee043146101a8578063f8237d54146101d157610086565b806308d17bb81461008b57806312065fe0146100a75780635778472a146100d25780638406c0791461011357610086565b3661008657005b600080fd5b6100a560048036038101906100a09190610f04565b6101fa565b005b3480156100b357600080fd5b506100bc61058f565b6040516100c99190610f70565b60405180910390f35b3480156100de57600080fd5b506100f960048036038101906100f49190610f8b565b610597565b60405161010a95949392919061103e565b60405180910390f35b34801561011f57600080fd5b5061012861062e565b6040516101359190611091565b60405180910390f35b34801561014a57600080fd5b5061016560048036038101906101609190610f8b565b610652565b60405161017695949392919061103e565b60405180910390f35b34801561018b57600080fd5b506101a660048036038101906101a19190610f8b565b6106d5565b005b3480156101b457600080fd5b506101cf60048036038101906101ca9190610f8b565b6109df565b005b3480156101dd57600080fd5b506101f860048036038101906101f39190610f8b565b610caa565b005b7f000000000000000000000000000000000000000000000000000000000000000073ffffffffffffffffffffffffffffffffffffffff163373ffffffffffffffffffffffffffffffffffffffff1614610288576040517f08c379a000000000000000000000000000000000000000000000000000000000815260040161027f90611109565b60405180910390fd5b600034116102cb576040517f08c379a00000000000000000000000000000000000000000000000000000000081526004016102c290611175565b60405180910390fd5b60008060008581526020019081526020016000206002015414610323576040517f08c379a000000000000000000000000000000000000000000000000000000000815260040161031a906111e1565b60405180910390fd5b600073ffffffffffffffffffffffffffffffffffffffff168273ffffffffffffffffffffffffffffffffffffffff1603610392576040517f08c379a00000000000000000000000000000000000000000000000000000000081526004016103899061124d565b60405180910390fd5b600073ffffffffffffffffffffffffffffffffffffffff168173ffffffffffffffffffffffffffffffffffffffff1603610401576040517f08c379a00000000000000000000000000000000000000000000000000000000081526004016103f8906112b9565b60405180910390fd5b6040518060a001604052808373ffffffffffffffffffffffffffffffffffffffff1681526020018273ffffffffffffffffffffffffffffffffffffffff1681526020013481526020016000600381111561045e5761045d610fc7565b5b81526020014281525060008085815260200190815260200160002060008201518160000160006101000a81548173ffffffffffffffffffffffffffffffffffffffff021916908373ffffffffffffffffffffffffffffffffffffffff16021790555060208201518160010160006101000a81548173ffffffffffffffffffffffffffffffffffffffff021916908373ffffffffffffffffffffffffffffffffffffffff1602179055506040820151816002015560608201518160030160006101000a81548160ff0219169083600381111561053c5761053b610fc7565b5b021790555060808201518160040155905050827f36825e46cf83e31a195caceff131f91757535b66b9b146d5c8bf65ac8d420ce8838334604051610582939291906112d9565b60405180910390a2505050565b600047905090565b60008060008060008060008088815260200190815260200160002090508060000160009054906101000a900473ffffffffffffffffffffffffffffffffffffffff168160010160009054906101000a900473ffffffffffffffffffffffffffffffffffffffff1682600201548360030160009054906101000a900460ff168460040154955095509550955095505091939590929450565b7f000000000000000000000000000000000000000000000000000000000000000081565b60006020528060005260406000206000915090508060000160009054906101000a900473ffffffffffffffffffffffffffffffffffffffff16908060010160009054906101000a900473ffffffffffffffffffffffffffffffffffffffff16908060020154908060030160009054906101000a900460ff16908060040154905085565b7f000000000000000000000000000000000000000000000000000000000000000073ffffffffffffffffffffffffffffffffffffffff163373ffffffffffffffffffffffffffffffffffffffff1614610763576040517f08c379a000000000000000000000000000000000000000000000000000000000815260040161075a90611109565b60405180910390fd5b6000806000838152602001908152602001600020905060008160020154116107c0576040517f08c379a00000000000000000000000000000000000000000000000000000000081526004016107b79061135c565b60405180910390fd5b600060038111156107d4576107d3610fc7565b5b8160030160009054906101000a900460ff1660038111156107f8576107f7610fc7565b5b1480610838575060038081111561081257610811610fc7565b5b8160030160009054906101000a900460ff16600381111561083657610835610fc7565b5b145b610877576040517f08c379a000000000000000000000000000000000000000000000000000000000815260040161086e906113c8565b60405180910390fd5b60028160030160006101000a81548160ff0219169083600381111561089f5761089e610fc7565b5b021790555060008160000160009054906101000a900473ffffffffffffffffffffffffffffffffffffffff1673ffffffffffffffffffffffffffffffffffffffff1682600201546040516108f290611419565b60006040518083038185875af1925050503d806000811461092f576040519150601f19603f3d011682016040523d82523d6000602084013e610934565b606091505b5050905080610978576040517f08c379a000000000000000000000000000000000000000000000000000000000815260040161096f9061147a565b60405180910390fd5b827fbb0af7321a16834399146ab3819202a61859e53d69bd9cf889c444dfe69f1bb28360000160009054906101000a900473ffffffffffffffffffffffffffffffffffffffff1684600201546040516109d292919061149a565b60405180910390a2505050565b7f000000000000000000000000000000000000000000000000000000000000000073ffffffffffffffffffffffffffffffffffffffff163373ffffffffffffffffffffffffffffffffffffffff1614610a6d576040517f08c379a0000000000000000000000000000000000000000000000000000000008152600401610a6490611109565b60405180910390fd5b600080600083815260200190815260200160002090506000816002015411610aca576040517f08c379a0000000000000000000000000000000000000000000000000000000008152600401610ac19061135c565b60405180910390fd5b60006003811115610ade57610add610fc7565b5b8160030160009054906101000a900460ff166003811115610b0257610b01610fc7565b5b14610b42576040517f08c379a0000000000000000000000000000000000000000000000000000000008152600401610b399061150f565b60405180910390fd5b60018160030160006101000a81548160ff02191690836003811115610b6a57610b69610fc7565b5b021790555060008160010160009054906101000a900473ffffffffffffffffffffffffffffffffffffffff1673ffffffffffffffffffffffffffffffffffffffff168260020154604051610bbd90611419565b60006040518083038185875af1925050503d8060008114610bfa576040519150601f19603f3d011682016040523d82523d6000602084013e610bff565b606091505b5050905080610c43576040517f08c379a0000000000000000000000000000000000000000000000000000000008152600401610c3a9061157b565b60405180910390fd5b827f75d86e5bfa1175e2dc677f3abe3aebba3069f2db6ae492f1734d4b4bc65f61c18360010160009054906101000a900473ffffffffffffffffffffffffffffffffffffffff168460020154604051610c9d92919061149a565b60405180910390a2505050565b7f000000000000000000000000000000000000000000000000000000000000000073ffffffffffffffffffffffffffffffffffffffff163373ffffffffffffffffffffffffffffffffffffffff1614610d38576040517f08c379a0000000000000000000000000000000000000000000000000000000008152600401610d2f90611109565b60405180910390fd5b600080600083815260200190815260200160002090506000816002015411610d95576040517f08c379a0000000000000000000000000000000000000000000000000000000008152600401610d8c9061135c565b60405180910390fd5b60006003811115610da957610da8610fc7565b5b8160030160009054906101000a900460ff166003811115610dcd57610dcc610fc7565b5b14610e0d576040517f08c379a0000000000000000000000000000000000000000000000000000000008152600401610e04906115e7565b60405180910390fd5b60038160030160006101000a81548160ff02191690836003811115610e3557610e34610fc7565b5b0217905550817f1801c047724383abaab65b9bb8a52ee3204560c6bc2b52543437937c79097b8660405160405180910390a25050565b600080fd5b6000819050919050565b610e8381610e70565b8114610e8e57600080fd5b50565b600081359050610ea081610e7a565b92915050565b600073ffffffffffffffffffffffffffffffffffffffff82169050919050565b6000610ed182610ea6565b9050919050565b610ee181610ec6565b8114610eec57600080fd5b50565b600081359050610efe81610ed8565b92915050565b600080600060608486031215610f1d57610f1c610e6b565b5b6000610f2b86828701610e91565b9350506020610f3c86828701610eef565b9250506040610f4d86828701610eef565b9150509250925092565b6000819050919050565b610f6a81610f57565b82525050565b6000602082019050610f856000830184610f61565b92915050565b600060208284031215610fa157610fa0610e6b565b5b6000610faf84828501610e91565b91505092915050565b610fc181610ec6565b82525050565b7f4e487b7100000000000000000000000000000000000000000000000000000000600052602160045260246000fd5b6004811061100757611006610fc7565b5b50565b600081905061101882610ff6565b919050565b60006110288261100a565b9050919050565b6110388161101d565b82525050565b600060a0820190506110536000830188610fb8565b6110606020830187610fb8565b61106d6040830186610f61565b61107a606083018561102f565b6110876080830184610f61565b9695505050505050565b60006020820190506110a66000830184610fb8565b92915050565b600082825260208201905092915050565b7f4f6e6c792072656c617965720000000000000000000000000000000000000000600082015250565b60006110f3600c836110ac565b91506110fe826110bd565b602082019050919050565b60006020820190508181036000830152611122816110e6565b9050919050565b7f4e6f2076616c75652073656e7400000000000000000000000000000000000000600082015250565b600061115f600d836110ac565b915061116a82611129565b602082019050919050565b6000602082019050818103600083015261118e81611152565b9050919050565b7f4f7264657220616c726561647920657869737473000000000000000000000000600082015250565b60006111cb6014836110ac565b91506111d682611195565b602082019050919050565b600060208201905081810360008301526111fa816111be565b9050919050565b7f496e76616c69642073656c6c6572000000000000000000000000000000000000600082015250565b6000611237600e836110ac565b915061124282611201565b602082019050919050565b600060208201905081810360008301526112668161122a565b9050919050565b7f496e76616c69642070726f76696465722077616c6c6574000000000000000000600082015250565b60006112a36017836110ac565b91506112ae8261126d565b602082019050919050565b600060208201905081810360008301526112d281611296565b9050919050565b60006060820190506112ee6000830186610fb8565b6112fb6020830185610fb8565b6113086040830184610f61565b949350505050565b7f4f72646572206e6f7420666f756e640000000000000000000000000000000000600082015250565b6000611346600f836110ac565b915061135182611310565b602082019050919050565b6000602082019050818103600083015261137581611339565b9050919050565b7f43616e6e6f7420726566756e6420696e2063757272656e742073746174650000600082015250565b60006113b2601e836110ac565b91506113bd8261137c565b602082019050919050565b600060208201905081810360008301526113e1816113a5565b9050919050565b600081905092915050565b50565b60006114036000836113e8565b915061140e826113f3565b600082019050919050565b6000611424826113f6565b9150819050919050565b7f526566756e6420746f2073656c6c6572206661696c6564000000000000000000600082015250565b60006114646017836110ac565b915061146f8261142e565b602082019050919050565b6000602082019050818103600083015261149381611457565b9050919050565b60006040820190506114af6000830185610fb8565b6114bc6020830184610f61565b9392505050565b7f4f72646572206e6f7420696e2066756e64656420737461746500000000000000600082015250565b60006114f96019836110ac565b9150611504826114c3565b602082019050919050565b60006020820190508181036000830152611528816114ec565b9050919050565b7f5472616e7366657220746f2070726f7669646572206661696c65640000000000600082015250565b6000611565601b836110ac565b91506115708261152f565b602082019050919050565b6000602082019050818103600083015261159481611558565b9050919050565b7f43616e206f6e6c7920646973707574652066756e646564206f72646572730000600082015250565b60006115d1601e836110ac565b91506115dc8261159b565b602082019050919050565b60006020820190508181036000830152611600816115c4565b905091905056fea264697066735822122010d572d2c6432ce5d3b20eddb7959b7a1fa89244e8b75f5c397721fe6e846bd264736f6c63430008140033",
  "linkReferences": {},
  "deployedLinkReferences": {}
}