{
  "_format": "hh-sol-artifact-1",
  "contractName": "EscrowContract",
  "sourceName": "contracts/EscrowContract.sol",
  "abi": [
    {
      "inputs": [],
      "stateMutability": "nonpayable",
      "type": "constructor"
    },
    {
      "anonymous": false,
      "inputs": [
        {
          "indexed": true,
          "internalType": "bytes32",
          "name": "orderId",
          "type": "bytes32"
        }
      ],
      "name": "DisputeOpened",
      "type": "event"
    },
    {
      "anonymous": false,
      "inputs": [
        {
          "indexed": true,
          "internalType": "bytes32",
          "name": "orderId",
          "type": "bytes32"
        },
        {
          "indexed": false,
          "internalType": "address",
          "name": "seller",
          "type": "address"
        },
        {
          "indexed": false,
          "internalType": "uint256",
          "name": "amount",
          "type": "uint256"
        }
      ],
      "name": "FundsRefunded",
      "type": "event"
    },
    {
      "anonymous": false,
      "inputs": [
        {
          "indexed": true,
          "internalType": "bytes32",
          "name": "orderId",
          "type": "bytes32"
        },
        {
          "indexed": false,
          "internalType": "address",
          "name": "providerWallet",
          "type": "address"
        },
        {
          "indexed": false,
          "internalType": "uint256",
          "name": "amount",
          "type": "uint256"
        }
      ],
      "name": "FundsReleased",
      "type": "event"
    },
    {
      "anonymous": false,
      "inputs": [
        {
          "indexed": true,
          "internalType": "bytes32",
          "name": "orderId",
          "type": "bytes32"
        },
        {
          "indexed": false,
          "internalType": "address",
          "name": "seller",
          "type": "address"
        },
        {
          "indexed": false,
          "internalType": "address",
          "name": "providerWallet",
          "type": "address"
        },
        {
          "indexed": false,
          "internalType": "uint256",
          "name": "amount",
          "type": "uint256"
        }
      ],
      "name": "OrderCreated",
      "type": "event"
    },
    {
      "inputs": [
        {
          "internalType": "bytes32",
          "name": "orderId",
          "type": "bytes32"
        },
        {
          "internalType": "address",
          "name": "seller",
          "type": "address"
        },
        {
          "internalType": "address",
          "name": "providerWallet",
          "type": "address"
        }
      ],
      "name": "createOrder",
      "outputs": [],
      "stateMutability": "payable",
      "type": "function"
    },
    {
      "inputs": [],
      "name": "getBalance",
      "outputs": [
        {
          "internalType": "uint256",
          "name": "",
          "type": "uint256"
        }
      ],
      "stateMutability": "view",
      "type": "function"
    },
    {
      "inputs": [
        {
          "internalType": "bytes32",
          "name": "orderId",
          "type": "bytes32"
        }
      ],
      "name": "getOrder",
      "outputs": [
        {
          "internalType": "address",
          "name": "seller",
          "type": "address"
        },
        {
          "internalType": "address",
          "name": "providerWallet",
          "type": "address"
        },
        {
          "internalType": "uint256",
          "name": "amount",
          "type": "uint256"
        },
        {
          "internalType": "enum EscrowContract.OrderStatus",
          "name": "status",
          "type": "uint8"
        },
        {
          "internalType": "uint256",
          "name": "createdAt",
          "type": "uint256"
        }
      ],
      "stateMutability": "view",
      "type": "function"
    },
    {
      "inputs": [
        {
          "internalType": "bytes32",
          "name": "orderId",
          "type": "bytes32"
        }
      ],
      "name": "markDisputed",
      "outputs": [],
      "stateMutability": "nonpayable",
      "type": "function"
    },
    {
      "inputs": [
        {
          "internalType": "bytes32",
          "name": "",
          "type": "bytes32"
        }
      ],
      "name": "orders",
      "outputs": [
        {
          "internalType": "address",
          "name": "seller",
          "type": "address"
        },
        {
          "internalType": "address",
          "name": "providerWallet",
          "type": "address"
        },
        {
          "internalType": "uint256",
          "name": "amount",
          "type": "uint256"
        },
        {
          "internalType": "enum EscrowContract.OrderStatus",
          "name": "status",
          "type": "uint8"
        },
        {
          "internalType": "uint256",
          "name": "createdAt",
          "type": "uint256"
        }
      ],
      "stateMutability": "view",
      "type": "function"
    },
    {
      "inputs": [
        {
          "internalType": "bytes32",
          "name": "orderId",
          "type": "bytes32"
        }
      ],
      "name": "refundFunds",
      "outputs": [],
      "stateMutability": "nonpayable",
      "type": "function"
    },
    {
      "inputs": [],
      "name": "relayer",
      "outputs": [
        {
          "internalType": "address",
          "name": "",
          "type": "address"
        }
      ],
      "stateMutability": "view",
      "type": "function"
    },
    {
      "inputs": [
        {
          "internalType": "bytes32",
          "name": "orderId",
          "type": "bytes32"
        }
      ],
      "name": "releaseFunds",
      "outputs": [],
      "stateMutability": "nonpayable",
      "type": "function"
    },
    {
      "stateMutability": "payable",
      "type": "receive"
    }
  ],
  "bytecode": "0x60a060405234801561001057600080fd5b503373ffffffffffffffffffffffffffffffffffffffff1660808173ffffffffffffffffffffffffffffffffffffffff16815250506080516115af610075600039600081816105a201528181610649015281816109530152610c1e01526115af6000f3fe60806040526004361061007f5760003560e01c80639c3f1e901161004e5780639c3f1e901461013e5780639fd701821461017f578063c92ee043146101a8578063f8237d54146101d157610086565b806308d17bb81461008b57806312065fe0146100a75780635778472a146100d25780638406c0791461011357610086565b3661008657005b600080fd5b6100a560048036038101906100a09190610e76565b6101fa565b005b3480156100b357600080fd5b506100bc610501565b6040516100c99190610ee2565b60405180910390f35b3480156100de57600080fd5b506100f960048036038101906100f49190610efd565b610509565b60405161010a959493929190610fb0565b60405180910390f35b34801561011f57600080fd5b506101286105a0565b6040516101359190611003565b60405180910390f35b34801561014a57600080fd5b5061016560048036038101906101609190610efd565b6105c4565b604051610176959493929190610fb0565b60405180910390f35b34801561018b57600080fd5b506101a660048036038101906101a19190610efd565b610647565b005b3480156101b457600080fd5b506101cf60048036038101906101ca9190610efd565b610951565b005b3480156101dd57600080fd5b506101f860048036038101906101f39190610efd565b610c1c565b005b6000341161023d576040517f08c379a00000000000000000000000000000000000000000000000000000000081526004016102349061107b565b60405180910390fd5b60008060008581526020019081526020016000206002015414610295576040517f08c379a000000000000000000000000000000000000000000000000000000000815260040161028c906110e7565b60405180910390fd5b600073ffffffffffffffffffffffffffffffffffffffff168273ffffffffffffffffffffffffffffffffffffffff1603610304576040517f08c379a00000000000000000000000000000000000000000000000000000000081526004016102fb90611153565b60405180910390fd5b600073ffffffffffffffffffffffffffffffffffffffff168173ffffffffffffffffffffffffffffffffffffffff1603610373576040517f08c379a000000000000000000000000000000000000000000000000000000000815260040161036a906111bf565b60405180910390fd5b6040518060a001604052808373ffffffffffffffffffffffffffffffffffffffff1681526020018273ffffffffffffffffffffffffffffffffffffffff168152602001348152602001600060038111156103d0576103cf610f39565b5b81526020014281525060008085815260200190815260200160002060008201518160000160006101000a81548173ffffffffffffffffffffffffffffffffffffffff021916908373ffffffffffffffffffffffffffffffffffffffff16021790555060208201518160010160006101000a81548173ffffffffffffffffffffffffffffffffffffffff021916908373ffffffffffffffffffffffffffffffffffffffff1602179055506040820151816002015560608201518160030160006101000a81548160ff021916908360038111156104ae576104ad610f39565b5b021790555060808201518160040155905050827f36825e46cf83e31a195caceff131f91757535b66b9b146d5c8bf65ac8d420ce88383346040516104f4939291906111df565b60405180910390a2505050565b600047905090565b60008060008060008060008088815260200190815260200160002090508060000160009054906101000a900473ffffffffffffffffffffffffffffffffffffffff168160010160009054906101000a900473ffffffffffffffffffffffffffffffffffffffff1682600201548360030160009054906101000a900460ff168460040154955095509550955095505091939590929450565b7f000000000000000000000000000000000000000000000000000000000000000081565b60006020528060005260406000206000915090508060000160009054906101000a900473ffffffffffffffffffffffffffffffffffffffff16908060010160009054906101000a900473ffffffffffffffffffffffffffffffffffffffff16908060020154908060030160009054906101000a900460ff16908060040154905085565b7f000000000000000000000000000000000000000000000000000000000000000073ffffffffffffffffffffffffffffffffffffffff163373ffffffffffffffffffffffffffffffffffffffff16146106d5576040517f08c379a00000000000000000000000000000000000000000000000000000000081526004016106cc90611262565b60405180910390fd5b600080600083815260200190815260200160002090506000816002015411610732576040517f08c379a0000000000000000000000000000000000000000000000000000000008152600401610729906112ce565b60405180910390fd5b6000600381111561074657610745610f39565b5b8160030160009054906101000a900460ff16600381111561076a57610769610f39565b5b14806107aa575060038081111561078457610783610f39565b5b8160030160009054906101000a900460ff1660038111156107a8576107a7610f39565b5b145b6107e9576040517f08c379a00000000000000000000000000000000000000000000000000000000081526004016107e09061133a565b60405180910390fd5b60028160030160006101000a81548160ff0219169083600381111561081157610810610f39565b5b021790555060008160000160009054906101000a900473ffffffffffffffffffffffffffffffffffffffff1673ffffffffffffffffffffffffffffffffffffffff1682600201546040516108649061138b565b60006040518083038185875af1925050503d80600081146108a1576040519150601f19603f3d011682016040523d82523d6000602084013e6108a6565b606091505b50509050806108ea576040517f08c379a00000000000000000000000000000000000000000000000000000000081526004016108e1906113ec565b60405180910390fd5b827fbb0af7321a16834399146ab3819202a61859e53d69bd9cf889c444dfe69f1bb28360000160009054906101000a900473ffffffffffffffffffffffffffffffffffffffff16846002015460405161094492919061140c565b60405180910390a2505050565b7f000000000000000000000000000000000000000000000000000000000000000073ffffffffffffffffffffffffffffffffffffffff163373ffffffffffffffffffffffffffffffffffffffff16146109df576040517f08c379a00000000000000000000000000000000000000000000000000000000081526004016109d690611262565b60405180910390fd5b600080600083815260200190815260200160002090506000816002015411610a3c576040517f08c379a0000000000000000000000000000000000000000000000000000000008152600401610a33906112ce565b60405180910390fd5b60006003811115610a5057610a4f610f39565b5b8160030160009054906101000a900460ff166003811115610a7457610a73610f39565b5b14610ab4576040517f08c379a0000000000000000000000000000000000000000000000000000000008152600401610aab90611481565b60405180910390fd5b60018160030160006101000a81548160ff02191690836003811115610adc57610adb610f39565b5b021790555060008160010160009054906101000a900473ffffffffffffffffffffffffffffffffffffffff1673ffffffffffffffffffffffffffffffffffffffff168260020154604051610b2f9061138b565b60006040518083038185875af1925050503d8060008114610b6c576040519150601f19603f3d011682016040523d82523d6000602084013e610b71565b606091505b5050905080610bb5576040517f08c379a0000000000000000000000000000000000000000000000000000000008152600401610bac906114ed565b60405180910390fd5b827f75d86e5bfa1175e2dc677f3abe3aebba3069f2db6ae492f1734d4b4bc65f61c18360010160009054906101000a900473ffffffffffffffffffffffffffffffffffffffff168460020154604051610c0f92919061140c565b60405180910390a2505050565b7f000000000000000000000000000000000000000000000000000000000000000073ffffffffffffffffffffffffffffffffffffffff163373ffffffffffffffffffffffffffffffffffffffff1614610caa576040517f08c379a0000000000000000000000000000000000000000000000000000000008152600401610ca190611262565b60405180910390fd5b600080600083815260200190815260200160002090506000816002015411610d07576040517f08c379a0000000000000000000000000000000000000000000000000000000008152600401610cfe906112ce565b60405180910390fd5b60006003811115610d1b57610d1a610f39565b5b8160030160009054906101000a900460ff166003811115610d3f57610d3e610f39565b5b14610d7f576040517f08c379a0000000000000000000000000000000000000000000000000000000008152600401610d7690611559565b60405180910390fd5b60038160030160006101000a81548160ff02191690836003811115610da757610da6610f39565b5b0217905550817f1801c047724383abaab65b9bb8a52ee3204560c6bc2b52543437937c79097b8660405160405180910390a25050565b600080fd5b6000819050919050565b610df581610de2565b8114610e0057600080fd5b50565b600081359050610e1281610dec565b92915050565b600073ffffffffffffffffffffffffffffffffffffffff82169050919050565b6000610e4382610e18565b9050919050565b610e5381610e38565b8114610e5e57600080fd5b50565b600081359050610e7081610e4a565b92915050565b600080600060608486031215610e8f57610e8e610ddd565b5b6000610e9d86828701610e03565b9350506020610eae86828701610e61565b9250506040610ebf86828701610e61565b9150509250925092565b6000819050919050565b610edc81610ec9565b82525050565b6000602082019050610ef76000830184610ed3565b92915050565b600060208284031215610f1357610f12610ddd565b5b6000610f2184828501610e03565b91505092915050565b610f3381610e38565b82525050565b7f4e487b7100000000000000000000000000000000000000000000000000000000600052602160045260246000fd5b60048110610f7957610f78610f39565b5b50565b6000819050610f8a82610f68565b919050565b6000610f9a82610f7c565b9050919050565b610faa81610f8f565b82525050565b600060a082019050610fc56000830188610f2a565b610fd26020830187610f2a565b610fdf6040830186610ed3565b610fec6060830185610fa1565b610ff96080830184610ed3565b9695505050505050565b60006020820190506110186000830184610f2a565b92915050565b600082825260208201905092915050565b7f4e6f2076616c75652073656e7400000000000000000000000000000000000000600082015250565b6000611065600d8361101e565b91506110708261102f565b602082019050919050565b6000602082019050818103600083015261109481611058565b9050919050565b7f4f7264657220616c726561647920657869737473000000000000000000000000600082015250565b60006110d160148361101e565b91506110dc8261109b565b602082019050919050565b60006020820190508181036000830152611100816110c4565b9050919050565b7f496e76616c69642073656c6c6572000000000000000000000000000000000000600082015250565b600061113d600e8361101e565b915061114882611107565b602082019050919050565b6000602082019050818103600083015261116c81611130565b9050919050565b7f496e76616c69642070726f76696465722077616c6c6574000000000000000000600082015250565b60006111a960178361101e565b91506111b482611173565b602082019050919050565b600060208201905081810360008301526111d88161119c565b9050919050565b60006060820190506111f46000830186610f2a565b6112016020830185610f2a565b61120e6040830184610ed3565b949350505050565b7f4f6e6c792072656c617965720000000000000000000000000000000000000000600082015250565b600061124c600c8361101e565b915061125782611216565b602082019050919050565b6000602082019050818103600083015261127b8161123f565b9050919050565b7f4f72646572206e6f7420666f756e640000000000000000000000000000000000600082015250565b60006112b8600f8361101e565b91506112c382611282565b602082019050919050565b600060208201905081810360008301526112e7816112ab565b9050919050565b7f43616e6e6f7420726566756e6420696e2063757272656e742073746174650000600082015250565b6000611324601e8361101e565b915061132f826112ee565b602082019050919050565b6000602082019050818103600083015261135381611317565b9050919050565b600081905092915050565b50565b600061137560008361135a565b915061138082611365565b600082019050919050565b600061139682611368565b9150819050919050565b7f526566756e6420746f2073656c6c6572206661696c6564000000000000000000600082015250565b60006113d660178361101e565b91506113e1826113a0565b602082019050919050565b60006020820190508181036000830152611405816113c9565b9050919050565b60006040820190506114216000830185610f2a565b61142e6020830184610ed3565b9392505050565b7f4f72646572206e6f7420696e2066756e64656420737461746500000000000000600082015250565b600061146b60198361101e565b915061147682611435565b602082019050919050565b6000602082019050818103600083015261149a8161145e565b9050919050565b7f5472616e7366657220746f2070726f7669646572206661696c65640000000000600082015250565b60006114d7601b8361101e565b91506114e2826114a1565b602082019050919050565b60006020820190508181036000830152611506816114ca565b9050919050565b7f43616e206f6e6c7920646973707574652066756e646564206f72646572730000600082015250565b6000611543601e8361101e565b915061154e8261150d565b602082019050919050565b6000602082019050818103600083015261157281611536565b905091905056fea2646970667358221220d0598f6b267eb92e42bacd91845a70e39b9d4f0e86a0ae9eef6fe5771cca7e8164736f6c63430008140033",
  "linkReferences": {},
  "deployedLinkReferences": {}
}