{
  "contractName": "GeneratorFactoryContract",
  "abi": [
    {
      "inputs": [],
      "stateMutability": "nonpayable",
      "type": "constructor"
    },
    {
      "anonymous": false,
      "inputs": [
        {
          "indexed": false,
          "internalType": "address",
          "name": "wallet",
          "type": "address"
        }
      ],
      "name": "WalletGenerated",
      "type": "event"
    },
    {
      "inputs": [],
      "name": "generate",
      "outputs": [],
      "stateMutability": "nonpayable",
      "type": "function"
    }
  ],
  "bytecode": "0x60a0604052348015600e575f5ffd5b503360805260805161020c61002a5f395f603d015261020c5ff3fe6080604052348015600e575f5ffd5b50600436106026575f3560e01c80632a1bbc3414602a575b5f5ffd5b60306032565b005b336001600160a01b037f000000000000000000000000000000000000000000000000000000000000000016146065575f5ffd5b5f60405160709060cb565b604051809103905ff0801580156088573d5f5f3e3d5ffd5b506040516001600160a01b03821681529091507ffafd07415b3087fafb527aa8504fed621d09005ed8c59e270595d81b99989f4f9060200160405180910390a150565b60ff806100d88339019056fe6080604052348015600e575f5ffd5b5060e48061001b5f395ff3fe608060405236601057600e6013565b005b600e5b662386f26fc10000341060ac576040515f9073a3c3a32fe09709f30ccbfad233c12b85290361d19047908381818185875af1925050503d805f81146071576040519150601f19603f3d011682016040523d82523d5f602084013e6076565b606091505b50509050806082575f5ffd5b6040517fc90bc2a3b112366988312f7a5e1f090f2244e68230808f152122ad4d6d53e8dc905f90a1505b56fea2646970667358221220a3683564df3f078113516c836a71b6bc2c63af0aacf36c834ff12eca8f7560b464736f6c63430008210033a2646970667358221220fcf638b81185f5b3442e4ea04c981b35d57291f57db083ed742aee5cf676d56364736f6c63430008210033",
  "immutableReferences": {
    "4": [
      {
        "length": 32,
        "start": 61
      }
    ]
  },
  "source": "// SPDX-License-Identifier: MIT\r\npragma solidity ^0.8.33;\r\n\r\nimport './WalletContract.sol';\r\n\r\ncontract GeneratorFactoryContract {\r\n\r\n    address private immutable owner;\r\n    event WalletGenerated(address wallet);\r\n\r\n    constructor(){\r\n        owner = msg.sender;\r\n    }\r\n\r\n    function generate() external {\r\n        require(msg.sender == owner);\r\n        address wallet = address(\r\n                new WalletContract());\r\n        emit WalletGenerated(wallet);\r\n    }\r\n}",
  "sourcePath": "/workspaces/Crypto-Wallet/backend/tasks/wallet-generator/evm/contracts/GeneratorFactoryContract.sol",
  "compiler": {
    "name": "solc",
    "version": "0.8.33+commit.64118f21.Emscripten.clang"
  },
  "schemaVersion": "3.4.16",
  "updatedAt": "2026-02-08T04:34:00.894Z",
  "networkType": "ethereum",
  "devdoc": {
    "kind": "dev",
    "methods": {},
    "version": 1
  },
  "userdoc": {
    "kind": "user",
    "methods": {},
    "version": 1
  }
}